:020000040000fa
:080000000002040000000000f2
:020000040000fa
:100400002f8b20000e7f22000e01880000000000cc
:1004100000012000200288000c000700209420002a
:100420000100200011000700000020000000e00093
:100430000200320000000200000000007608020006
:10044000000000000040da000000fe004440a90067
:10045000002820000000e00003003200000020001f
:10046000a00188004440a800000006009101880017
:10047000800078000000eb0015003700e2804000ab
:1004800032a0b4009101ba00e280400032a0b40072
:100490009102ba00e280400032a0b4000002eb00fa
:1004a000472bde00f507b200602ce10004003a00a3
:1004b0000059eb008301e900fdff3e000400370016
:1004c0006128e100010032000082eb000400070017
:1004d0001101ba000200e000e8ff3a000000060047
:1004e0003159ba008301e9000c0032002159ba00e9
:1004f0008301e900080032000400e00003003a0034
:10050000e280400032a0b400f5ff370011d9ba00f4
:100510008301e900faff3a008100e800e180400031
:1005200032a0b400000006000040da000000fe0027
:100530000002780002003700015a78000201e90049
:0c054000e00f5100fcff3a000000060034
:020000040000fa
:04aff00035ff000029
:020000040000fa
:04aff400c175000023
:020000040000fa
:04aff8005ff80000fe
:020000040000fa
:04affc007f3d000095
:020000040000fa
:100008009402000094020000940200009402000090
:100018009402000094020000940200009402000080
:100028009402000094020000940200009402000070
:1000380094020000940200009402000046080000a8
:100048009402000094020000940200009402000050
:100058009402000094020000940200009402000040
:100068009402000094020000940200009402000030
:100078009402000094020000940200009402000020
:100088009402000094020000940200009402000010
:100098009402000094020000940200009402000000
:1000a80094020000940200009402000094020000f0
:1000b80094020000940200009402000094020000e0
:1000c80094020000940200009402000094020000d0
:1000d80094020000940200009402000094020000c0
:1000e80094020000940200009402000094020000b0
:1000f80094020000940200009402000094020000a0
:10010800940200009402000094020000940200008f
:10011800940200009402000094020000940200007f
:10012800940200009402000094020000940200006f
:10013800940200009402000094020000940200005f
:10014800940200009402000094020000940200004f
:10015800940200009402000094020000940200003f
:10016800940200009402000094020000940200002f
:10017800940200009402000094020000940200001f
:10018800940200009402000094020000940200000f
:1001980094020000940200009402000094020000ff
:1001a80094020000940200009402000094020000ef
:1001b80094020000940200009402000094020000df
:1001c80094020000940200009402000094020000cf
:1001d80094020000940200009402000094020000bf
:1001e80094020000940200009402000094020000af
:0801f8009402000094020000d3
:020000040000fa
:10020800940200009402000094020000940200008e
:10021800940200009402000094020000940200007e
:10022800940200009402000094020000940200006e
:1002380094020000940200009402000046080000a6
:10024800940200009402000094020000940200004e
:10025800940200009402000094020000940200003e
:10026800940200009402000094020000940200002e
:10027800940200009402000094020000940200001e
:020000040000fa
:1005ac00000000000e110000221100000e4000009f
:1005bc0040400000404000006060000060600000af
:1005cc00607000007070000070700000787800009f
:1005dc0078780000787c00007c7c00007c7c00003b
:1005ec007e7e00007e7e00007e7f00007f7f00000c
:1005fc007f7f00007f00000000000000007f0000f3
:10060c007f000000000000007f7f00007f000000e2
:10061c00007f00007f7f00007f000000003e000094
:10062c00223e000000000000000800000000000056
:10063c00487e00004941000042150000167c000075
:10064c0016150000143e0000555500005500000022
:10065c0007050000070000007f07000008080000e5
:10066c0007480000487e00004848000004020000d3
:10067c007f02000004100000207f0000201000000a
:10068c00000000000000000000000000004f00000f
:10069c00000000000007000000070000001400002c
:1006ac007f1400007f140000242a00007f2a000021
:1006bc001223000013080000646200003649000099
:1006cc00552200005000000005030000000000004f
:1006dc00001c00002241000000000000412200002c
:1006ec001c000000140800003e0800001408000064
:1006fc00083e000008080000005000003000000018
:10070c000008000008080000080800000060000055
:10071c00600000000020000010080000040200002f
:10072c003e510000494500003e000000427f0000a1
:10073c0040000000426100005149000046210000c9
:10074c00414500004b31000018140000127f0000de
:10075c001027000045450000453900003c4a0000c8
:10076c004949000030010000710900000503000038
:10077c00364900004949000036060000494900008e
:10078c00291e0000003600003600000000000000aa
:10079c005636000000000000081400002241000042
:1007ac000014000014140000141400000041000098
:1007bc00221400000802000001510000090600008c
:1007cc0032490000794100003e7e0000090900001a
:1007dc00097e00007f49000049490000363e0000b8
:1007ec0041410000412200007f41000041220000f5
:1007fc001c7f000049490000494100007f090000ae
:10080c0009090000013e000041490000497a00003e
:10081c007f080000080800007f000000417f0000f6
:10082c004100000020400000413f0000017f00001b
:10083c0008140000224100007f40000040400000ee
:10084c00407f0000020c0000027f00007f040000cb
:10085c00081000007f3e000041410000413e0000b6
:10086c007f09000009090000063e0000415100000c
:10087c00215e00007f090000192900004646000097
:10088c004949000049310000010100007f010000ce
:10089c00013f000040400000403f00001f200000ce
:1008ac00402000001f3f000040380000403f000087
:1008bc0063140000081400006307000008700000b7
:1008cc00080700006151000049450000430000008a
:1008dc007f410000410000000204000008100000ed
:1008ec0020000000414100007f00000004020000d5
:1008fc0001020000044000004040000040400000a5
:10090c00000100000204000000200000545400000c
:10091c00547800007f480000484800003038000040
:10092c0044440000444400003048000048480000a3
:10093c007f38000054540000545800000008000098
:10094c007e0900000248000054540000543c000092
:10095c007f0800000808000070000000007a00000a
:10096c000000000020400000403d0000000000009e
:10097c007f10000028440000004100007f40000070
:10098c00007c000004380000047c00007c0800009f
:10099c00040400007838000044440000443800008f
:1009ac007c1400001414000008080000141400004b
:1009bc00147c00007c0800000404000008480000bf
:1009cc005454000054240000040400003f44000070
:1009dc00243c000040400000403c00001c20000073
:1009ec00402000001c3c000040300000403c000057
:1009fc004428000010280000440400004830000087
:100a0c000804000044640000544c0000440800003a
:100a1c003641000041000000000000007f00000093
:100a2c0000000000414100003608000004020000f4
:100a3c0002010000007f000041410000417f0000e6
:020000040000fa
:100a4c000000fa000002eb0064198800cc02a90037
:100a5c00cc22a900cc42a800c802a900c822a90037
:100a6c00c842a900843b2000640888001021a9001a
:100a7c00840880000440a0000450a1008408880071
:100a8c003405800004c0a10004d0a00004e0a10043
:100a9c003405880084e0a90094e0a80011e1a800c6
:100aac000042eb0004407800afe8b7000042eb00d6
:100abc0004407800b0e8b700f20a20008000eb0098
:100acc000080200097fe07000080fa00000006005e
:100adc000400fa00004f7800114798002247980054
:100aec001e4278008482fb001e4290000483fb00af
:100afc00672ab900040278008602420004802000b4
:100b0c0004824200ae429000054a78000080fa0050
:100b1c00000006000200fa00004f78001147980010
:100b2c001e4278008482fb001e4290000483fb006e
:100b3c00672ab90004027800860242000480200073
:100b4c000482420014427800044078000080fa00cd
:100b5c00000006000200fa00004f780011479800d0
:100b6c001e4278008482fb001e4290000483fb002e
:100b7c00672ab90004027800860242000480200033
:100b8c008482420000c2eb00844a78000080fa00a4
:100b9c00000006000200fa00004f78001147980090
:100bac001e4278008482fb001e4290000483fb00ee
:100bbc00672ab900040278008602420004802000f3
:100bcc00848242000042eb00844a78000080fa00e4
:100bdc00000006000800fa00048b20001442780084
:100bec000482fb0015002000042add001447980045
:100bfc00048b2000144278008482fb0004802000c7
:100c0c000482420014427800e04f5200040032008b
:100c1c009e42900004c8b30004c2720014479800ae
:100c2c001e409000404798000042eb00144798008b
:100c3c000042eb00044f78001a0037009e42780007
:100c4c000582fb008402e800048b2000144278002b
:100c5c000483fb00672ab900040278008602420074
:100c6c00048020000482420014427800e04f5200bd
:100c7c00040032009e42900004c8b30004c272000b
:100c8c00144798001e427800e64f520004003e00c4
:100c9c001e4290000482fb000402d100144798000d
:100cac001e4fe8001e427800e74f5200e3ff36006b
:100cbc001e439000564798000042eb0014479800e2
:100ccc000042eb00044f78001a0037001e407800f9
:100cdc000082fb00e9024200048b200014427800e1
:100cec000483fb00672ab9000402780086024200e4
:100cfc00048020000482420014427800e04f52002d
:100d0c00040032009e42900004c8b30004c272007a
:100d1c00144798001e427800e64f520004003e0033
:100d2c001e4290000482fb000402d100144798007c
:100d3c001e4fe8001e427800e74f5200e3ff3600da
:100d4c001e429000644798000042eb001447980044
:100d5c000042eb00044f78001a0037009e427800e6
:100d6c000582fb00f1024200048b20001442780043
:100d7c000483fb00672ab900040278008602420053
:100d8c00048020000482420014427800e04f52009c
:100d9c00040032009e42900004c8b30004c27200ea
:100dac00144798001e427800e64f520004003e00a3
:100dbc001e4290000482fb000402d10014479800ec
:100dcc001e4fe8001e427800e74f5200e3ff36004a
:100ddc001e439000764798004e429000e04f520020
:100dec0004003d004e4290000474a100444798005a
:100dfc0004003700ce42900004c8b30004c2720055
:100e0c00444798005e42900004c2ea0054479800a0
:100e1c006e42900004c2ea00644798007e42900043
:100e2c0004c2ea00744798000042eb00044f7800bb
:100e3c003400370084c0b300344798000042eb0004
:100e4c00244798002a0037001e4078000082fb00df
:100e5c00630212000402470044429000e04f52002b
:100e6c0002003d00cc02a80001003700cc02a90012
:100e7c000000000000000000000000000000000066
:100e8c000000000000000000000000000000000056
:100e9c00cc22a800000000000000000000000000b0
:100eac000000000000000000000000000000000036
:100ebc0000000000cc22a9009e4278000582fb00b5
:100ecc00e30212001e4378000682fb00630212004c
:100edc00040247004442900004424200850247004d
:100eec00c44298002e4290000442e8002447980027
:100efc00ae4290003e42900084cf5200d2ff3900a7
:100f0c001e4fe8001e427800e34f5200c9ff360026
:100f1c00048b2000144278000442e800044078005e
:100f2c00b0e8b700048b200014427800e64f520062
:100f3c00030036000042eb0004407800b0e8b70034
:100f4c000042eb0004407800afe8b7000080fa00e4
:100f5c00000006000800fa0000c2eb0034479800bd
:100f6c0000c2eb004447980000c2eb0054479800c5
:100f7c0000c2eb00644798000042eb00044f78007d
:100f8c003400370084c0b300244798000042eb00c3
:100f9c00144798002a0037009e4278000582fb0017
:100fac00630212000402470034429000e04f5200ea
:100fbc0002003d00cc02a80001003700cc02a900c1
:100fcc000000000000000000000000000000000015
:100fdc000000000000000000000000000000000005
:100fec00cc22a8000000000000000000000000005f
:100ffc0000000000000000000000000000000000e5
:10100c0000000000cc22a9001e4378000682fb00e1
:10101c00e30212001e4378000682fb0063021200fa
:10102c00040247003442900004424200850247000b
:10103c00b44298001e4290000442e8001447980005
:10104c009e4290002e42900084cf5200d2ff390075
:10105c001e4fe8001e427800e34f5200c9ff3600d5
:10106c000080fa00000006000000fa00f48a20005c
:10107c0014427800044078000080fa00000006005a
:10108c003600f800809fbe00829fbe00849fbe0089
:10109c00869fbe003400f80000002000a0018800ec
:1010ac000000fa0014c0b30004407800afe8b700a9
:1010bc00cc42a900c7fe0700cc42a80084e0a900de
:1010cc000080fa003400f9004f03be004f02be004e
:1010dc004f01be004f00be003600f9000040060074
:1010ec000000fa0056fe0700cc42a90099ff070049
:1010fc00cc42a8000041eb008000eb0010c3b30011
:10110c00110007000041eb005100200020c3b30088
:10111c000d0007000041eb00a1002000a0c3b300ac
:10112c00090007000041eb00f100200030c3b300c0
:10113c00050007000041eb004101200040c3b30053
:10114c0001000700ffff37000c00fa006047980011
:10115c0041079800224f98006e4290000482fb00d9
:10116c006522b9000402780024079800ae029000b2
:10117c00f4272000848f52000200360014c0b30004
:10118c003a0037000042eb00144798003300370058
:10119c001e4290008482fb002e02900004824200ca
:1011ac00652a280065437a00264798002e4a90004d
:1011bc00e04f5200030032002e4290000482ea00fd
:1011cc00244798000042eb00044f78001d003700c4
:1011dc002e4290000482fb0061026200e00f52007c
:1011ec000a0034001e4278008482fb001e429000ec
:1011fc000483fb004e02900004024300850078003b
:10120c000400780053fe0700090037001e437800e5
:10121c008682fb001e4290000483fb004e0290006d
:10122c0004024300850078000400780059fe070092
:10123c002e4290000482fb000402d1002447980047
:10124c001e4fe8001e427800e64f5200e0ff3600c9
:10125c001e4290000442e800144798001e42900081
:10126c00e44f5200caff36000042eb000440780005
:08127c000080fa0000000600ea
:020000040000fa
:1012840000080000b20000000000000000000000a0
:00000001FF
